:100000000C9463000C948B000C948B000C948B006C
:100010000C948B000C948B000C948B000C948B0034
:100020000C948B000C948B000C948B000C948B0024
:100030000C948B000C948B000C948B000C948B0014
:100040000C9495060C948B000C9405070C94DF0619
:100050000C948B000C948B000C948B000C948B00F4
:100060000C9437070C948B0000000000240027003C
:100070002A0000000000250028002B0000000000DE
:1000800023002600290004040404040404040202DA
:100090000202020203030303030301020408102007
:1000A0004080010204081020010204081020000012
:1000B0000008000201000003040700000000000027
:1000C00000005608F10D11241FBECFEFD8E0DEBFAF
:1000D000CDBF15E0A0E0B1E0ECE8F2E202C005908F
:1000E0000D92A039B107D9F727E0A0E9B5E001C02A
:1000F0001D92A631B207E1F710E0C2E6D0E004C0DD
:100100002197FE010E94380FC136D107C9F70E941E
:10011000F3080C9439110C94000083E480937C0064
:1001200080917A00806480937A0080917A0086FDC5
:10013000FCCF80917800909179000895833081F010
:1001400028F4813099F08230A9F008958730A9F021
:100150008830C9F08430B1F4809180008F7D03C075
:10016000809180008F7780938000089584B58F7789
:1001700084BD089584B58F7DFBCF8091B0008F77CB
:100180008093B00008958091B0008F7DF9CFCF9318
:10019000DF93282F30E0F901E255FF4F8491F901F8
:1001A000E656FF4FD491F901EA57FF4FC491CC2393
:1001B000A1F081110E949E00EC2FF0E0EE0FFF1FD6
:1001C000E458FF4FA591B491EC91ED2381E090E0CC
:1001D00009F480E0DF91CF91089580E090E0FACFBC
:1001E0001F93CF93DF93282F30E0F901E255FF4FA3
:1001F0008491F901E656FF4FD491F901EA57FF4F78
:10020000C491CC23A9F0162F81110E949E00EC2FDF
:10021000F0E0EE0FFF1FEE58FF4FA591B4918FB79E
:10022000F894EC91111108C0D095DE23DC938FBFB8
:10023000DF91CF911F910895DE2BF8CFCF93DF93FD
:1002400090E0FC01E656FF4F24918A579F4FFC0136
:1002500084918823D1F090E0880F991FFC01E85920
:10026000FF4FA591B491FC01EE58FF4FC591D49179
:10027000623071F49FB7F8943C91822F809583236C
:100280008C93E8812E2B28839FBFDF91CF91089517
:100290008FB7F894EC912E2B2C938FBFF6CF3FB7EE
:1002A000F8948091530690915406A0915506B09110
:1002B000560626B5A89B05C02F3F19F00196A11D33
:1002C000B11D3FBFBA2FA92F982F8827BC01CD01A0
:1002D000620F711D811D911D42E0660F771F881FFF
:1002E000991F4A95D1F708958F929F92AF92BF922E
:1002F000CF92DF92EF92FF924B015C010E944F017F
:100300006B017C010E944F016C197D098E099F09C8
:10031000683E734081059105A8F321E0821A910897
:10032000A108B10888EEC80E83E0D81EE11CF11CBC
:1003300081149104A104B10429F7FF90EF90DF909C
:10034000CF90BF90AF909F908F900895089508959B
:10035000AF92BF92CF92DF92EF92FF920F931F93D3
:10036000CF93DF936C017B018B01040F151FEB0111
:100370005E01AE18BF08C017D10759F06991D601C8
:10038000ED91FC910190F081E02DC6010995892B3A
:1003900079F7C501DF91CF911F910F91FF90EF90F9
:1003A000DF90CF90BF90AF900895FC01538D448DA6
:1003B000252F30E0842F90E0821B930B541710F010
:1003C000CF96089501970895FC01918D828D98171D
:1003D00061F0A28DAE0FBF2FB11D5D968C91928DF5
:1003E0009F5F9F73928F90E008958FEF9FEF089526
:1003F000FC01918D828D981731F0828DE80FF11DEF
:10040000858D90E008958FEF9FEF0895FC01918D09
:10041000228D892F90E0805C9F4F821B91098F7302
:100420009927089587E596E00E94060221E0892B2E
:1004300009F420E0822F089580E090E0892B29F0D4
:100440000E94120281110C9400000895FC01A48DF9
:10045000A80FB92FB11DA35ABF4F2C91848D90E0E6
:1004600001968F739927848FA689B7892C93A089C9
:10047000B1898C91837080648C93938D848D981353
:1004800006C00288F389E02D80818F7D80830895E6
:10049000EF92FF920F931F93CF93DF93EC0181E0D4
:1004A000888F9B8D8C8D98131AC0E889F98980817B
:1004B00085FF15C09FB7F894EE89FF896083E889AE
:1004C000F98980818370806480839FBF81E090E0A0
:1004D000DF91CF911F910F91FF90EF900895F62E2D
:1004E0000B8D10E00F5F1F4F0F731127E02E8C8DC7
:1004F0008E110CC00FB607FCFACFE889F98980810C
:1005000085FFF5CFCE010E942602F1CFEB8DEC0FD7
:10051000FD2FF11DE35AFF4FF0829FB7F8940B8F28
:10052000EA89FB8980818062CFCFCF93DF93EC0192
:10053000888D8823B9F0AA89BB89E889F9898C91CB
:1005400085FD03C0808186FD0DC00FB607FCF7CF87
:100550008C9185FFF2CF808185FFEDCFCE010E9487
:100560002602E9CFDF91CF91089508952091D1051A
:10057000260F3327331F21323105ECF420911A0660
:10058000FC0190E080E0243069F082E00895A091C1
:10059000D1052191AC014F545A4FA40FB52FB11D75
:1005A0002C930196861798F38091D105680F60937C
:1005B000D10580E0089581E0089510921A0681E047
:1005C000809319061092F40561E082E10E94F00028
:1005D00061E083E10E94F000E9EBF0E080818E7F32
:1005E000808380818D7F808388E48093B80085E458
:1005F0008093BC000895CF93DF9391E09093B00572
:100600008823B9F0C091B800D091BA008091BC00A5
:100610008A7B8093BC0060E082E10E94F00060E091
:1006200083E10E94F0000E94DD02D093BA00C093E3
:10063000B800DF91CF9108950895E0914906809127
:100640004806E81730F4F0E0E057FA4F808190E078
:1006500008958FEF9FEF0895909149068091480685
:100660002FEF3FEF981748F4E92FF0E0E057FA4FEB
:10067000208130E09F5F90934906C90108958091E1
:10068000480690914906891B990B0895CF92DF92F5
:10069000EF92FF920F931F93CF93DF937C01CB01D7
:1006A0008A0120912006222389F0EB016B01C40E00
:1006B000D51ECC15DD0569F06991D701ED91FC914E
:1006C0000190F081E02DC7010995F3CF642F0E94BE
:1006D000B602C801DF91CF911F910F91FF90EF906B
:1006E000DF90CF900895CF93DF931F92CDB7DEB701
:1006F0006983209120062223F9F0209146062032BA
:1007000058F021E030E0FC013383228390E080E068
:100710000F90DF91CF91089580914706E82FF0E088
:10072000EF5DF94F998190838F5F809347068093A7
:10073000460681E090E0ECCF61E0CE0101960E9498
:10074000B602F7CFCF92DF92EF92FF920F931F93F3
:10075000CF93DF93FC01C48121E020932006C09356
:10076000410610924706109246068385682B84EF57
:1007700096E00E947303D0914606D13208F092C0F1
:100780000E944F016B017C0180911A06811165C0A6
:1007900082E080931A0681E0809319068FEF8093A0
:1007A000180610921706D0931606A1E2B6E0E6EFFF
:1007B000F5E080E0D81385C01092F5058091F5052D
:1007C000CC0FC82BC093F5058091F405813009F05A
:1007D0007CC01092F4050E944F016B017C01809156
:1007E000F5058093BB0080911C0690911D06A09199
:1007F0001E06B0911F06892B8A2B8B2B99F00E9425
:100800004F0100911C0610911D0620911E0630918B
:100810001F066C197D098E099F09061717072807FF
:100820003907E0F18091BC0083FDD9CF85EC80933E
:10083000BC000E944F016B017C0180911A0682303E
:1008400009F445C0809118068F3F61F18091180628
:10085000803241F18091180625C080911C0690914C
:100860001D06A0911E06B0911F06892B8A2B8B2B8B
:1008700009F48ACF0E944F0100911C0610911D06B9
:1008800020911E0630911F066C197D098E099F0963
:10089000061717072807390708F076CF80911B063F
:1008A0000E94FB0210924706109246061092200604
:1008B000DF91CF911F910F91FF90EF90DF90CF903C
:1008C00008959D9191938F5F75CF85EEB0CF809104
:1008D0001C0690911D06A0911E06B0911F06892B43
:1008E0008A2B8B2B09F4A9CF0E944F0100911C0683
:1008F00010911D0620911E0630911F066C197D096E
:100900008E099F09061717072807390708F095CFA2
:10091000C5CF90E080E008950F931F93CF938C0193
:10092000C62F0E94A2036C2F6460C8010E94A2031C
:100930006C2F6B7FC8010E94A20383EC90E00197AB
:10094000F1F7CF911F910F9108950F931F93CF93BC
:10095000DF938C01D62FC42F607F642B0E948C0400
:1009600080E1D89FB00111246C2BC801DF91CF9199
:100970001F910F910C948C0440E061E086E097E0B9
:100980000E94A5048BE39FE10197F1F70895CF93AF
:10099000DF93CDB7DEB728970FB6F894DEBF0FBE52
:1009A000CDBF98E0EAE0F1E0DE01119601900D92F2
:1009B0009A95E1F790910E07961710F46FEF690F73
:1009C000262F30E0220F331F41E050E04C0F5D1F17
:1009D000240F351FF9016081680F606840E086E0F0
:1009E00097E028960FB6F894DEBF0FBECDBFDF911B
:1009F000CF910C94A50441E00E94A50481E090E011
:100A00000895AF92BF92CF92DF92FF920F931F9300
:100A1000CF93DF936C01FF24F394D0E0C0E0860114
:100A20000C0F1D1FF80180818823D9F0F4E0FF1618
:100A3000C1F06F2D80E00E94C7045E0184E1A80E22
:100A4000B11CF80161918F01662349F041E086E015
:100A500097E00E94A5042196CA15DB0591F7F3944F
:100A6000DECFDF91CF911F910F91FF90DF90CF905C
:100A7000BF90AF900895FB0101900020E9F73197F6
:100A8000AF01461B570BDC01ED91FC910280F38115
:100A9000E02D0994CF93DF93BC0187E596E00E9497
:100AA0003B05EC0162E771E087E596E00E943B05BB
:100AB0008C0F9D1FDF91CF910895BC0186E097E0D8
:100AC0000C943B058F929F92AF92BF92CF92DF9290
:100AD000EF92FF92CF93DF93CDB7DEB7A1970FB61A
:100AE000F894DEBF0FBECDBF6C01990FEE08FF0872
:100AF000F7FE40C041E06DE286E097E00E94A50469
:100B000022273327A9012C193D094E095F0919A293
:100B1000CE0181967C019AE0892E912CA12CB12CDA
:100B2000CA01B901A50194010E94070F605DF70198
:100B300062937F01211531054105510589F790E048
:100B400080E0309729F0BF0186E097E00E943B05E6
:100B50000196A1960FB6F894DEBF0FBECDBFDF9110
:100B6000CF91FF90EF90DF90CF90BF90AF909F908C
:100B70008F900895A701960119A2CE0181967C015C
:100B80008AE0882E912CA12CB12CCA01B901A501B3
:100B900094010E94070F605DF70162937F012115A8
:100BA00031054105510589F790E080E0309789F2E1
:100BB000BF0186E097E00E943B05CBCFCF93DF9348
:100BC000EC018091000790910107009759F0209166
:100BD0000207309103072C173D0720F081E0DF91D9
:100BE000CF910895BE016F5F7F4F0E946310009701
:100BF00089F09093010780930007D0930307C09377
:100C000002072091040730910507232B39F7FC01D7
:100C10001082E4CF80E0E3CF0F931F93CF93DF9355
:100C20008C01EC0109900020E9F72197C81BD90B32
:100C3000CE010E94DE05209100073091010781114D
:100C400017C02115310519F0C9010E94DA0F109261
:100C500001071092000710920507109204071092E6
:100C6000030710920207DF91CF911F910F91089512
:100C7000D0930507C0930407B801C901DF91CF9154
:100C80001F910F910C9432112091040730910507A8
:100C9000232B39F421E0FC018081882361F020E0DE
:100CA0000AC0BC0180910007909101070E942911A0
:100CB00021E0892BA1F7822F089585ED8093BC0058
:100CC00080911C0690911D06A0911E06B0911F06F2
:100CD0000796A11DB11D23E0B695A7959795879519
:100CE0002A95D1F72091BC0024FD03C010921A066A
:100CF000089540911C0650911D0660911E0670914A
:100D00001F06452B462B472B69F30097A105B1051C
:100D100041F02AE22A95F1F700C00197A109B10933
:100D2000E1CF80911B060C94FB021F920F920FB62D
:100D30000F9211242F933F938F939F93AF93BF9361
:100D400080914F0690915006A0915106B0915206A5
:100D500030914E0623E0230F2D3758F50196A11D43
:100D6000B11D20934E0680934F0690935006A0939A
:100D70005106B09352068091530690915406A0916B
:100D80005506B09156060196A11DB11D80935306DC
:100D900090935406A0935506B0935606BF91AF9119
:100DA0009F918F913F912F910F900FBE0F901F90A9
:100DB000189526E8230F0296A11DB11DD2CF1F92D0
:100DC0000F920FB60F9211242F933F934F935F937F
:100DD0006F937F938F939F93AF93BF93EF93FF9303
:100DE00087E596E00E942602FF91EF91BF91AF91B7
:100DF0009F918F917F916F915F914F913F912F9133
:100E00000F900FBE0F901F9018951F920F920FB664
:100E10000F9211242F938F939F93EF93FF93E09161
:100E20006706F09168068081E0916D06F0916E068C
:100E300082FD1BC09081809170068F5F8F7320911F
:100E40007106821741F0E0917006F0E0E95AF94F1F
:100E5000958F80937006FF91EF919F918F912F91C5
:100E60000F900FBE0F901F9018958081F4CF1F92A6
:100E70000F920FB60F9211242F933F934F935F93CE
:100E80006F937F938F939F93AF93BF93EF93FF9352
:100E90008091B900887F803609F44AC0F0F5883225
:100EA00009F4A7C018F5803109F49BC0B8F4882371
:100EB00009F4F9C0883009F494C0FF91EF91BF9113
:100EC000AF919F918F917F916F915F914F913F91E2
:100ED0002F910F900FBE0F901F901895883109F435
:100EE00088C0803251F78093180614C0803409F40A
:100EF0009DC040F48033B9F38833F9F68093180627
:100F000085ECB0C0803509F485C0883509F496C0F9
:100F1000883499F60E945D06D0CF883909F48CC0D8
:100F200038F5883729F050F4883611F0803729F6E3
:100F300083E080931A061092F30557C0883809F4AD
:100F40007BC0803919F0803809F0B7CF8091F30564
:100F5000803208F071C0E091F30581E08E0F80933C
:100F6000F3058091BB00F0E0ED52FA4F80833DC065
:100F7000803B39F0E0F4803A09F479C0883A09F00E
:100F80009CCF84E080931A061092D2051092D1056E
:100F9000E0914406F091450609958091D1058111B3
:100FA0000FC081E08093D1051092B10509C0803C4B
:100FB00009F4A6CF883C09F4A3CF883B09F07DCF84
:100FC000E091D20581E08E0F8093D205F0E0EF54DE
:100FD000FA4F80818093BB009091D2058091D1051A
:100FE00029C08091F5058093BB0085EC8093BC00FF
:100FF00064CF9091170680911606981758F5E091E6
:10100000170681E08E0F80931706F0E0EA50FA4F42
:101010008081E9CFE091170681E08E0F809317065B
:101020008091BB00F0E0EA50FA4F80839091170660
:10103000809116069817C8F285E8D8CFE091170678
:1010400081E08E0F809317068091BB00F0E0EA509C
:10105000FA4F80838091190681115CCF81E08093E3
:10106000F40584EA8093BC0010921A0626CF85EC22
:101070008093BC0010921A068091F305803230F400
:10108000E091F305F0E0ED52FA4F10826091F30524
:1010900070E0E0914206F091430683ED95E00995FA
:1010A0001092F3050ACF1092180634CF10925A0608
:1010B0001092590688EE93E0A0E0B0E080935B06C2
:1010C00090935C06A0935D06B0935E0626E431E043
:1010D000309358062093570625EC30E03093640691
:1010E0002093630624EC30E0309366062093650677
:1010F00020EC30E0309368062093670621EC30E066
:1011000030936A062093690622EC30E030936C0637
:1011100020936B0626EC30E030936E0620936D062C
:101120001092700610927106109272061092730659
:101130001092F7061092F6068093F8069093F9063F
:10114000A093FA06B093FB0688E591E09093F5062C
:101150008093F40610920907109208078AE691E03E
:10116000909307078093060780E280930A0780E147
:1011700080930F0784E0809310071092110710925C
:1011800001071092000710920307109202071092B5
:101190000507109204078BE090E00E94DE05209185
:1011A000000730910107811113C02115310519F095
:1011B000C9010E94DA0F10920107109200071092E5
:1011C0000507109204071092030710920207089572
:1011D0008BE090E0909305078093040765E771E04A
:1011E000C9010C943211CF93DF93CDB7DEB7A2972C
:1011F0000FB6F894DEBF0FBECDBF789484B5826081
:1012000084BD84B5816084BD85B5826085BD85B5AA
:10121000816085BD80916E00816080936E00109228
:1012200081008091810082608093810080918100A3
:101230008160809381008091800081608093800034
:101240008091B10084608093B1008091B000816092
:101250008093B00080917A00846080937A008091BE
:101260007A00826080937A0080917A008160809316
:101270007A0080917A00806880937A001092C10091
:1012800010924906109248061092470610924606A0
:101290000E94DD0286EA91E0909345068093440621
:1012A00087EA91E0909343068093420610920B07E1
:1012B00080911007823018F098E090930B0780938C
:1012C0000E0762E370E080E090E00E94740160919C
:1012D000110786E097E00E94A20368EE73E080E0C9
:1012E00090E00E94740160E386E097E00E948C0425
:1012F0000BE416E4C8010197F1F760E386E097E09C
:101300000E948C04C8010197F1F760E386E097E042
:101310000E948C0483E592E00197F1F760E286E099
:1013200097E00E948C0460910B07606240E086E0C9
:1013300097E00E94A50484E080930C0740E06CE0F5
:1013400086E097E00E94A5040E94BC0412E010937E
:101350000D0740E066E086E097E00E94A50440E0CB
:1013600062E086E097E00E94A5048BE39FE101978D
:10137000F1F788E08093110760E086E097E00E9433
:10138000A203E0916706F09168061083E09163067E
:10139000F09164061082E0916506F09166068FEC8C
:1013A000808310926F06E0916B06F0916C0686E0E8
:1013B0008083E0916906F0916A0680818061808374
:1013C000E0916906F0916A06808188608083E091EF
:1013D0006906F0916A06808180688083E0916906E1
:1013E000F0916A0680818F7D808381E891E00E9480
:1013F0004A0561E08EE00E941E0161E08FE00E94DC
:101400001E0161E080E10E941E0162E082E00E9414
:101410001E0102E211E0D8018C910E5F1F4F62E0C5
:101420000E941E01B1E002331B07A9F767E0262ED8
:10143000312C60E080E00E94C70482E991E00E94C4
:101440005D05409104075091050760910007709178
:10145000010786E097E00E94A80162E080E00E9418
:10146000C70489E991E00E945D0563E080E00E9485
:10147000C7048DEA91E00E945D0582E00E94C700EA
:10148000892B09F055C181EC91E00E944A052FB7E4
:10149000F89480914F0690915006A0915106B0911A
:1014A00052062FBF80934A0690934B06A0934C069A
:1014B000B0934D0682E00E94C700892BE1F42FB75C
:1014C000F89480914F0690915006A0915106B091EA
:1014D00052062FBF40914A0650914B0660914C0630
:1014E00070914D06841B950BA60BB70B893B9B4057
:1014F000A105B105F8F22FB7F89480914F069091AD
:101500005006A0915106B09152062FBF40914A0655
:1015100050914B0660914C0670914D06841B950BC3
:10152000A60BB70B883B9B40A105B10508F4F3C09F
:101530008BED91E00E944A0582E00E94C700892B52
:10154000D9F30E94BC0485E791E00E9444068823F9
:1015500009F413C180E1E2E1F1E0DE01519601906E
:101560000D928A95E1F71A82198281E090E09C83BE
:101570008B83A2E0B0E0BE83AD83E3E0F0E0F887C8
:10158000EF8384E090E09A878987A5E0B0E0BC878C
:10159000AB87E6E0F0E0FE87ED87388A2F860E9471
:1015A0008D00BC01990F880B990B611571058105A0
:1015B000910511F00E94950E8E010F5F1F4F78016B
:1015C00058E0852E912CA12CB12C28010E94460EAA
:1015D000A50194010E949E0ED7011E962D913C916B
:1015E0001F97660F771FF801E60FF71F8081918123
:1015F0001F969C938E931E9731832083B1E08B1AA4
:101600009108A108B108E2E0EE1AF108F1E08F16A6
:101610009104A104B104D1F6380120E1620E711CDD
:10162000D12CC12CD8018D909D908D010E94BC04BD
:1016300060E080E00E94C70489EF91E00E945D05B0
:10164000F401EE0FFF1FE40DF51D808991890E94C2
:10165000010592E2A92E91E0B92EF12CE12CF501C1
:101660008081F2E0AF0EB11C0E94C700892B09F007
:101670007BC062E080E00E94C7048E149F0409F0E2
:1016800064C00E94BC0485E092E00E945D0561E0B8
:101690008FE00E94F0002FEFC21AD20A63E080E0D0
:1016A0000E94C7048AE292E00E945D05C6010E9482
:1016B000620560ED77E080E090E00E94740160E0F8
:1016C0008EE00E94F00060E08FE00E94F00060E099
:1016D00080E10E94F0006016710609F0A3CF0E941D
:1016E000BC0460E080E00E94C70486E392E00E94B0
:1016F0005D0561E080E00E94C70480E492E00E9402
:101700005D0580E592E00E944A0568EB7BE080E0A1
:1017100090E00E94740185E791E00E9444068823CE
:1017200009F44CC287E692E00E940C060E94BC04B9
:10173000E0E0F0E0EF2B09F47CCE0E941202882357
:1017400009F474CE0E94000071CE0E94BC0487E1AF
:1017500092E00E945D0561E08EE00E94F00061E091
:1017600080E10E94F0009ACF8FEFE81AF80A98E023
:10177000E916F10409F073CF6CCF87E692E00E947E
:101780004406882309F4E4C01A821982A1E0B0E07B
:10179000BC83AB83E2E0F0E0FE83ED8383E090E086
:1017A00098878F83A4E0B0E0BA87A987E5E0F0E0EE
:1017B000FC87EB8786E090E09E878D87388A2F86AE
:1017C0000E948D00BC01990F880B990B6115710562
:1017D0008105910511F00E94950EDE0111963D01E3
:1017E0008D0188E0C82ED12CE12CF12C0E94460EF0
:1017F000A70196010E949E0EF80126853785660F87
:10180000771FF301E60FF71F80819181D8011F96A2
:101810009C938E931E9731832083B1E0CB1AD1081D
:10182000E108F10802501109E1E0CE16D104E1040B
:10183000F104E1F64301F0E18F0E911CF12CE12C53
:10184000D301AD90BD903D010E94BC0460E080E0FA
:101850000E94C7048FE692E00E945D05F501EE0F3D
:10186000FF1FEE5CFE4F808191810E94010572E2B4
:10187000C72E71E0D72E10E000E0F6018081F2E083
:10188000CF0ED11C0E94C700892B09F05AC062E01C
:1018900080E00E94C704A016B10609F043C00E9470
:1018A000BC0485E092E00E945D0561E08FE00E944B
:1018B000F0002FEFE21AF20A63E080E00E94C70412
:1018C0008AE292E00E945D05C7010E94620560ED18
:1018D00077E080E090E00E94740160E08FE00E9479
:1018E000F00060E08EE00E94F00060E080E10E9485
:1018F000F0006814790409F0A3CF0E94BC0460E0F2
:1019000080E00E94C70486E392E00E945D0561E0EA
:1019100080E00E94C7048CE892E00E945D058DE99A
:1019200092E0F1CE0E94BC0488E792E00E945D053F
:1019300061E08EE00E94F00061E080E10E94F00032
:10194000BBCF0F5F1F4F0830110509F096CF8FCF27
:1019500081EB92E00E944406882309F42FC11A8289
:10196000198281E090E09C838B83A2E0B0E0BE838B
:10197000AD83E3E0F0E0F887EF8384E090E09A87BE
:101980008987A5E0B0E0BC87AB87E6E0F0E0FE87A2
:10199000ED87388A2F860E948D00BC01990F880B35
:1019A000990B611571058105910511F00E94950E45
:1019B0008E010F5F1F4F780168E0862E912CA12CBD
:1019C000B12C0E94460EA50194010E949E0ED701E3
:1019D0001E962D913C911F97660F771FF801E60F19
:1019E000F71F808191811F969C938E931E97318360
:1019F0002083B1E08B1A9108A108B108E2E0EE1A49
:101A0000F108F1E08F169104A104B104D1F6C801E8
:101A100040969AA389A3712C612CF12CE12CCC2443
:101A2000C394D12CD8014D905D908D010E94BC04CF
:101A300060E080E00E94C70480EE92E00E945D05B5
:101A4000C6010E94620583E092E00E945D0560E0AD
:101A50008AE00E94C7048FEB92E00E945D05F201CC
:101A6000EE0FFF1FEE5CFE4F808191810E94010509
:101A700022E2822E21E0922EB12CA12CF401808151
:101A8000F2E08F0E911C0E94C700892B09F06AC0FA
:101A900062E080E00E94C704A414B50409F053C0BA
:101AA0000E94BC0485E092E00E945D0561E08FE049
:101AB0000E94F00021E0C216D10409F040C08FEF6F
:101AC000E81AF80A63E080E00E94C7048AEC92E01A
:101AD0000E945D05C7010E9462058FEC92E00E94A2
:101AE0005D05C3010E94620560ED77E080E090E053
:101AF0000E94740160E08FE00E94F00060E08EE0E0
:101B00000E94F00060E080E10E94F000A4E0EA168C
:101B1000F10489F50E94BC0460E080E00E94C704E3
:101B200086ED92E00E945D0582E090E024E0E216FE
:101B3000F10411F481E090E00E946205F0CE9FEF85
:101B4000691A790ABFCF0E94BC0488E792E00E941C
:101B50005D0561E08EE00E94F00061E080E10E949E
:101B6000F000B0CFBFEFAB1ABB0AE8E0AE16B1048D
:101B700009F084CF7DCFF4E06F16710459F2CA9456
:101B8000CD28C1F0CC24C394D12CA9A1BAA10A17A5
:101B90001B0709F047CF0E94BC0460E080E00E9470
:101BA000C70489EE92E00E945D058DE992E00E94F3
:101BB0004A05B1CD82E0C82ED12CE7CF87E692E06E
:101BC0000E944406882319F081EB92E0ADCD81EBB1
:101BD00092E00E944406882309F4AACD85E791E0AB
:101BE000A3CD8091000790910107009711F00C940C
:101BF000DA0F08958F929F92AF92BF92CF92DF92A9
:101C0000EF92FF92CF93DF93EC01688179818A8113
:101C10009B81611571058105910521F464E279EDDF
:101C20008BE597E02DE133EF41E050E00E949E0EFE
:101C300049015A019B01AC01A7EAB1E40E94BD0E23
:101C40006B017C01ACEEB4EFA50194010E94CB0EB8
:101C5000C60ED71EE81EF91EF7FE06C081E0C81AA0
:101C6000D108E10880E8F80AC882D982EA82FB82BA
:101C7000C701B6019F77DF91CF91FF90EF90DF9082
:101C8000CF90BF90AF909F908F9008958F929F922A
:101C9000AF92BF92CF92DF92EF92FF9260910001DC
:101CA000709101018091020190910301611571050C
:101CB0008105910521F464E279ED8BE597E02DE152
:101CC00033EF41E050E00E949E0E49015A019B0112
:101CD000AC01A7EAB1E40E94BD0E6B017C01ACEE41
:101CE000B4EFA50194010E94CB0EC60ED71EE81ECC
:101CF000F91EF7FE06C081E0C81AD108E10880E8A5
:101D0000F80AC0920001D0920101E0920201F09223
:101D10000301C701B6019F77FF90EF90DF90CF904E
:101D2000BF90AF909F908F90089560930001709343
:101D3000010180930201909303010895052E97FB02
:101D40001EF400940E94B50E57FD07D00E94070FA5
:101D500007FC03D04EF40C94B50E50954095309589
:101D600021953F4F4F4F5F4F089590958095709507
:101D700061957F4F8F4F9F4F08950E94290FA59F18
:101D8000900DB49F900DA49F800D911D1124089576
:101D9000B7FF0C94BD0E0E94BD0E821B930B0895DD
:101DA0002F923F924F925F926F927F928F929F926B
:101DB000AF92BF92CF92DF92EF92FF920F931F9359
:101DC000CF93DF93CDB7DEB7CA1BDB0B0FB6F8940A
:101DD000DEBF0FBECDBF09942A88398848885F844A
:101DE0006E847D848C849B84AA84B984C884DF80BB
:101DF000EE80FD800C811B81AA81B981CE0FD11D9F
:101E00000FB6F894DEBF0FBECDBFED010895A1E27D
:101E10001A2EAA1BBB1BFD010DC0AA1FBB1FEE1F64
:101E2000FF1FA217B307E407F50720F0A21BB30BAF
:101E3000E40BF50B661F771F881F991F1A9469F72B
:101E400060957095809590959B01AC01BD01CF0187
:101E50000895A29FB001B39FC001A39F700D811D83
:101E60001124911DB29F700D811D1124911D0895A3
:101E7000EE0FFF1F0590F491E02D09940F931F932F
:101E8000CF93DF938230910510F482E090E0E091EF
:101E90001407F091150730E020E0B0E0A0E03097A3
:101EA00099F42115310509F44AC0281B390B243057
:101EB0003105D8F58A819B816115710589F1FB0196
:101EC00093838283FE0111C040815181028113817D
:101ED00048175907E0F04817590799F4109761F02F
:101EE00012960C93129713961C933296CF01DF91A2
:101EF000CF911F910F910895009314071093150728
:101F0000F4CF2115310551F04217530738F0A901DC
:101F1000DB019A01BD01DF01F801C1CFEF01F9CF6B
:101F20009093150780931407CDCFFE01E20FF31FA6
:101F3000819391932250310939832883D7CF2091FF
:101F4000120730911307232B41F4209106013091A1
:101F50000701309313072093120720910401309159
:101F600005012115310541F42DB73EB74091080117
:101F700050910901241B350BE0911207F0911307D2
:101F8000E217F307A0F42E1B3F0B2817390778F050
:101F9000AC014E5F5F4F2417350748F04E0F5F1FAF
:101FA0005093130740931207819391939FCFF0E0D2
:101FB000E0E09CCFCF93DF930097E9F0FC013297EC
:101FC00013821282A0911407B0911507ED0130E041
:101FD00020E01097A1F420813181820F931F20917E
:101FE0001207309113072817390709F061C0F093E1
:101FF0001307E0931207DF91CF910895EA01CE17FE
:10200000DF07E8F54A815B819E0141155105B1F773
:10201000E901FB83EA8349915991C40FD51FEC175D
:10202000FD0761F4808191810296840F951FE9017B
:1020300099838883828193819B838A83F0E0E0E0A7
:1020400012968D919C9113970097B9F52D913C9123
:102050001197CD010296820F931F209112073091A4
:1020600013072817390739F6309751F510921507DD
:1020700010921407B0931307A0931207BCCFD38319
:10208000C28340815181840F951FC817D90761F41D
:102090004E5F5F4F88819981480F591F518340835C
:1020A0008A819B81938382832115310509F0B0CF0A
:1020B000F0931507E09314079ECFFD01DC01C0CF1C
:1020C00013821282D7CFB0E0A0E0E9E6F0E10C94F1
:1020D000D20E8C01009751F4CB010E943E0F8C016F
:1020E000C801CDB7DEB7E0E10C94EE0EFC01E60FBF
:1020F000F71F9C0122503109E217F30708F49DC035
:10210000D901CD91DC911197C617D70798F0C5304A
:10211000D10530F3CE0104978617970708F3C61B45
:10212000D70B2297C193D1936D937C93CF010E94DB
:10213000DA0FD6CF5B01AC1ABD0A4C018C0E9D1E86
:10214000A0911407B0911507512C412CF12CE12CD2
:10215000109731F580911207909113078815990512
:1021600009F05CC04616570608F058C0809104017B
:1021700090910501009741F48DB79EB740910801F9
:1021800050910901841B950BE817F90708F055C019
:10219000F0931307E0931207F90171836083A0CFD6
:1021A0008D919C91119712966C90129713967C903A
:1021B0001397A815B90559F56C0142E0C40ED11C5E
:1021C000CA14DB0420F1AC014A195B09DA0112964A
:1021D000159780F06282738251834083D9016D9399
:1021E0007C93E114F10471F0D7011396FC93EE9304
:1021F000129776CF22968C0F9D1FF90191838083D1
:10220000F301EFCFF0931507E093140769CF481659
:10221000590608F42C017D01D3019ACFCB010E940D
:102220003E0F7C01009749F0AE01B8010E942011D9
:10223000C8010E94DA0F870153CF10E000E050CFB1
:10224000FB01DC0102C001900D9241505040D8F7D3
:102250000895FB01DC018D91019080190110D9F3E3
:10226000990B0895FB01DC0101900D920020E1F72C
:10227000089510E0C2E6D0E004C0FE010E94380FCD
:0C2280002196C336D107C9F7F894FFCFB0
:10228C000100000000001607800000004000140050
:10229C005400F902160331035E0379039603B40369
:1022AC00D60303000400050006000700080009001F
:1022BC000A00F7031D0451048904B704EA04170546
:1022CC005205000000004802A801D5019502060243
:1022DC00E401F801000000007303460389041C03A9
:1022EC003F032C031D0300000000FB04A80189041C
:1022FC00B5020D0A00417072656E64697A61646F93
:10230C000053657269616C20496E6963696164612F
:10231C002E004D6F646F3A20002D436C697175650A
:10232C00207061726120706173736172002D53654E
:10233C0067757265207061726120656E747261726E
:10234C0000426F74616F20646520636F6E74726FEE
:10235C006C6520636C696361646F00426F74616FBC
:10236C0020646520636F6E74726F6C65207072658B
:10237C007373696F6E61646F005175616C204F727D
:10238C0067616F3A00526573706F73746120636F8D
:10239C0072726574612100526573706F746120698B
:1023AC006E636F72726574612100506F6E7475612B
:1023BC0063616F3A20005061726162656E73210037
:1023CC004D6F646F20636F6E636C7569646F210071
:1023DC00417072656E64697A61646F20636F6E63BD
:1023EC006C7569646F21004465736166696F0044A4
:1023FC0065736166696F3A00526573706F737461CF
:10240C0020696E636F727265746121004D6F646F29
:10241C002066696E616C697A61646F210044657332
:10242C006166696F20636F6E636C75C3AD646F21F9
:10243C00004465736166696F204475706C6100516E
:10244C0075616C206F7267616F004A313A20002011
:10245C00204A323A200056656E6365646F723A20EA
:10246C004A6F6761646F72200046696D20646F204B
:10247C004465736166696F2100426F6D62656961C5
:10248C002073616E6775652070617261206F2063C7
:10249C006F72706F3F0054726F6361206465206FC0
:1024AC00786967656E696F20706F7220434F323F99
:1024BC000046696C7472612073616E677565206586
:1024CC002061726D617A656E612063656C756C61FB
:1024DC00732073616E6775696E6561733F0050722E
:1024EC006F64757A2062696C652065206465736918
:1024FC006E746F786963613F00446967657265202B
:10250C00616C696D656E746F7320636F6D206163B0
:10251C0069646F733F0046696C7472612073616EFD
:10252C0067756520652070726F64757A20757269A5
:10253C006E613F004162736F727665206E757472C6
:10254C0069656E74657320646F7320616C696D6569
:10255C006E746F733F0050726F64757A20696E737E
:10256C00756C696E61206520726567756C612061A0
:10257C0063756361723F0045206F20756E69636FF0
:10258C00206D757363756C6F20717565206E756E3B
:10259C0063612073652063616E73613F0054656DE8
:1025AC00206D696C686F6573206465202773617199
:1025BC0075696E686F73206465206172272063688B
:1025CC00616D61646F7320616C76656F6C6F733FC6
:1025DC000044657374726F6920676C6F62756C6F01
:1025EC0073207665726D656C686F732076656C68A8
:1025FC006F73206520616A756461206E6120696D5E
:10260C00756E69646164653F00506F646520736525
:10261C0020726567656E65726172206D65736D6F92
:10262C0020736520706572646572207061727465C8
:10263C002064656C653F0050726F64757A2061632D
:10264C0069646F20636C6F7269647269636F207068
:10265C006172612064696765726972206F732061B1
:10266C006C696D656E746F733F00526567756C6154
:10267C002061207175616E746964616465206465A4
:10268C00206167756120652073616C206E6F20730B
:10269C00616E6775653F0054656D2063657263619B
:1026AC002064652037206D6574726F73206465201B
:1026BC00636F6D7072696D656E746F2065206162F9
:1026CC00736F727665206E75747269656E7465735E
:1026DC003F0050726F64757A20656E7A696D617314
:1026EC0020717565206469676572656D2063617220
:1026FC00626F69647261746F732C2070726F746591
:10270C00696E6173206520676F7264757261000079
:00000001FF
